:0600000002006B0229AFB3
:03000B00022CA81C
:03001300022A02BC
:01001B0032B2
:0300230002291798
:03002B00022F4160
:01003300329A
:03003B00022A5541
:030043000228D8B8
:01004B003282
:030053000229631C
:01005B003272
:03006300022F3F2A
:03006600022AA9C2
:02006900E4733E
:0D006B007581331232C6E582600302006623
:1000780079A4E94400601B7A0190364C78AE75A0EB
:1000880001E493F2A308B8000205A0D9F4DAF275E6
:02009800A0FFC7
:06009A00E478FFF6D8FD3A
:1000A0007800E84400600A799475A000E4F309D868
:1000B000FC781AE84401600C7902900094E4F0A303
:0400C000D8FCD9FA95
:0200C400C20375
:0E00C6007808E4F608F608F608F6780C7600DE
:0200D400C20761
:0200D600C2085E
:0300D800020066BD
:1000DC001208EC120100120B8512091212089D1263
:1000EC001FE490056D0222F912029D1201421224A6
:1000FC00210220F99001687402F075821F122B2CDA
:10010C009001687402F075821E122B2C9001687499
:10011C0002F0758221122B2C75821F122BE3AF82F9
:10012C0075821EC007122BE3AE82D007EF2FFF9013
:10013C0001DCEE2FF02275821F122BE3AF82758249
:10014C001EC007122BE3AE82D007EF2F2EFF9001BB
:10015C00DDF09001DCE0FE75F008A424E3FC7401F2
:10016C0035F0FDEF2FFB2CF582E43DF583E0FCA38D
:10017C00E0FDBC0122BD001F8FF005F07A017B0071
:10018C008006EA2AFAEB33FBD5F0F79001DFE04A60
:10019C00F0A3E04BF08023BCFF20BDFF1D8FF005CA
:1001AC00F07C017D008006EC2CFCED33FDD5F0F7E6
:1001BC009001E1E04CF0A3E04DF0EEB50703020234
:1001CC0094BF030280030202949001DFE0FEA3E0DF
:1001DC00FFBE0B05BF00028016BE0D05BF000280DE
:1001EC000EBE0E05BF00028006BE0F3ABF00379050
:1001FC0001DBE0FF9001DEE09001DB2FF0E02480DA
:10020C0050069001DB747FF09001B4E0FF90009DEC
:10021C00E0FE9001DBE0FD900151EEF0900152ED1B
:10022C00F08F821227529001E1E0FEA3E0FFBE0B9B
:10023C0005BF00028016BE0D05BF0002800EBE0E6B
:10024C0005BF00028006BE0F32BF002F9001DBE01D
:10025C00FF9001DEE0FE9001DBEFC39EF09001B455
:10026C00E0FF90009DE0FE9001DBE0FD900151EE7F
:10027C00F0900152EDF08F821227529001DFE4F0E2
:10028C00A3F09001E1F0A3F09001DDE09001DCF02F
:10029C00227F00BF0400400122EF24B0F582E43439
:1002AC0001F583E0F582C007122BE3AE82D0078EF6
:1002BC00057E00EF75F002A424B6F582740135F0CA
:1002CC00F583E0FBA3E0FCEDB50306EEB50402807C
:1002DC0036EF75F004A424CAF510740135F0F5114D
:1002EC00C007C006C005122D28A882A983AAF0FC5D
:1002FC00D005D006D007851082851183E8F0E9A3DC
:10030C00F0EAA3F0ECA3F0C005C006C007C006C01D
:10031C0005122D2885821285831385F014F515D0CE
:10032C0005D006D007EF75F004A424CAF582740139
:10033C0035F0F583E0F8A3E0FCA3E0FDA3E0FEE5D7
:10034C0012C398F8E5139CFCE5149DFDE5159EFE83
:10035C00C3740598E49CE49DE49ED006D00540034C
:10036C000203FBEF75F002A424BEFB740135F0FC14
:10037C008B828C83E0F9A3E0FAEDB50107EEB502B0
:10038C00030203FB8B828C83EDF0EEA3F08B828C4B
:10039C0083E0FBA3E0FCED4E70138F82C007C00618
:1003AC00C005120413D005D006D0078042BB013F14
:1003BC00BC003C9001DAE07036EF2494F582E43412
:1003CC0000F583E0FCBC01138F82C007C006C0059A
:1003DC001204B8D005D006D0078014BC03118F824C
:1003EC00C007C006C005120533D005D006D007EFF4
:1003FC0075F002A424B6F582740135F0F583EDF0A6
:10040C00EEA3F00F02029FE5829000B5F0E0FF240E
:10041C0094F582E43400F583E0FEBE0102800ABE4E
:10042C000202800ABE034080338F82020474EF24E0
:10043C00C6FDE43401FE8D828E83E0B4010092008F
:10044C008D828E83A200E433F030000B9000B874E0
:10045C00BAF08F820204ED8F820205339000B874DB
:10046C002AF08F820204ED22E5829000B6F0900112
:10047C00B4E0FF9000B6E0FE2499F582E43400F578
:10048C0083E0FD9001B5E0FC90014CEDF090014D46
:10049C00ECF08F82C0061226E5D0069000C974EAF3
:1004AC00F09000CA7401F08E82020B1CE582900061
:1004BC00B7F09001B4E0FF9000B7E0FE2499F5820C
:1004CC00E43400F583E090014FF08F82C0061227D0
:1004DC001ED0069000C9E4F09000CAF08E82020B88
:1004EC001CE5829000B9F09001B4E0FF9000B9E0F7
:1004FC00FE2499F582E43400F583E0FD9001B5E02B
:10050C00FC900151EDF0900152ECF08F82C006127C
:10051C002752D0069000B8E09000C9F09000CA7441
:10052C0001F08E82020B1CE5829000BAF09001B4AF
:10053C00E0FF9000BAE0FE2499F582E43400F583E4
:10054C00E0900151F0900152E4F08F82C006122726
:10055C0052D0069000C9E4F09000CAF08E82020BD3
:10056C001C122315AF829000BDEFF0C00712231CA4
:10057C00AE82C006122323AD82D006D007BF0A027A
:10058C008003020779BE66028003020779BD2A0048
:10059C005003020779ED24CE5003020779ED24D6DF
:1005AC00FF240A83F582EF240C83F583E473CA1BC2
:1005BC007B98B52E4E6E05060606060707079001BA
:1005CC00DA7401F07C007F00C3EC9403EF64809438
:1005DC0080502E8C039000C0E4F09000C174F0F0B9
:1005EC009000C2F4F08B82C007C006C005C0041294
:1005FC000985D004D005D006D0070CBC00CA0F80EA
:10060C00C7C006C0051209D3D005D0060207797CF5
:10061C00007F00C3EC9403EF64809480502F8C0314
:10062C009000C074F0F09000C1E4F09000C2740F20
:10063C00F08B82C007C006C005C004120985D00427
:10064C00D005D006D0070CBC00C90F80C6C006C0B0
:10065C00051209D3120C0A9007D0E4F5F0122D659F
:10066C00120929D005D0069001DAE4F0020779903E
:10067C0001517467F0900152741FF075820AC00624
:10068C00C005122752D005D006020779900151748B
:10069C0068F0900152740AF075820AC006C0051207
:1006AC002752D005D0060207797C007F00C3EC945A
:1006BC0004EF64809480504AEC2494F582EF34006B
:1006CC00F583E00475F00AA4FB8C02EA2B04FBEC26
:1006DC002499F582EF3400F583E0FA900151EBF0A8
:1006EC00900152EAF075820AC007C006C005C0042A
:1006FC00122752D004D005D006D0070CBC00AE0F88
:10070C0080AB90009DE0FF9001517408F090015275
:10071C00EFF075820AC006C005122752D005D0062C
:10072C00804B9001DEE0FF9001517469F090015212
:10073C00EFF075820AC006C005122752D005D0060C
:10074C00802B9001B4E0FF900151746AF09001523B
:10075C00EFF075820AC006C005122752D005D006EC
:10076C00800BC006C0051208ABD005D0069001DA8C
:10077C00E0FFBF01028001227F00C007C006C00558
:10078C00740AC0E0E4C0E08E828F83123204AB8224
:10079C0015811581D005D006D007C005C003740A99
:1007AC00C0E0E4C0E08E828F83122FFBAE821581F5
:1007BC001581D003D005EE14FF24FA500122EB6012
:1007CC0011BB0500500CEF2494F582E43400F58342
:1007DC00EBF0BD8000500CEF2499F582E43400F569
:1007EC0083EDF0BF040590009DEDF0EBFE24F95075
:1007FC00030209D3EE2E2E900807730209D30208C8
:10080C001C02083302084A0209D302086202087F5C
:10081C009000C0E4F09000C17496F09000C2F4F027
:10082C008F8212098580679000C0E4F09000C1743B
:10083C00C3F09000C2F4F08F8212098580509000B2
:10084C00C07460F09000C1E4F09000C2749FF08F0F
:10085C00821209858038ED600ABD100050059001A8
:10086C00B4EDF09001B4E090015FF07582001228B5
:10087C0092801BED600ABD100050059001DEEDF07A
:10088C009001DEE090015FF075820112289202095E
:10089C00D3758221122BE3E58270030208AB227E12
:1008AC00007F00C3EE9403EF64809480502390008B
:1008BC00C4744AF0E4A3F09000C6F08E828F83C01B
:1008CC0007C0061209E8D006D0070EBE00D50F806F
:1008DC00D21209D375E200C2AF758900123800221A
:1008EC007F00BF0400501EEF24B0F582E43401F504
:1008FC0083E0FE9001687402F08E82C007122B2CEC
:10090C00D0070F80DD229001687401F075822212ED
:10091C002B2C900169E4F0758222022C337E007F2F
:10092C0000C3EE9403EF6480948050238E059000F6
:10093C00C0E4F09000C1F09000C2F08D82C007C0FE
:10094C0006120985D006D0070EBE00D50F80D20244
:10095C0009D3AF83E5829000BEF0EFA3F09000BE08
:10096C00E0FEA3E09000C0E4F09000C1F09000C263
:10097C00F08E821209850209D3E5829000C3F0E063
:10098C00FF7E00C007C006900003122EA1AE82AFFE
:10099C008315811581EE249EFEEF3400FF9000C07C
:1009AC00E08E828F83F074012EFCE43FFD9000C139
:1009BC00E08C828D83F074022EFEE43FFF9000C227
:1009CC00E08E828F83F0227E9E7F007D007C004330
:1009DC0005098E828F838DF0EC022F43AF83E58265
:1009EC009000C7F0EFA3F09000C4E0FEA3E0FF90EE
:1009FC0000C474FFC39EF0E49FA3F09000C4E0FE1B
:100A0C00A3E0FFC3EE9455EF64809480502DC00694
:100A1C00C007900003122EA1AE82AF831581158101
:100A2C009000A774FFC39EF0E49FA3F09000A9E48C
:100A3C00F0A3F09000ABEEF0EFA3F09000C4E0FE5A
:100A4C00A3E0FFC3EE94AAEF648094805045EE249B
:100A5C00ABFCEF34FFFD9000C4ECF0EDA3F0900084
:100A6C00A7E4F0A3F09000C4E0C0E0A3E0C0E090E5
:100A7C000003122EA1AC82AD83158115819000A9C3
:100A8C00ECF0EDA3F09000AB74FFC39CF0E49DA3DD
:100A9C00F08043EE2456FEEF34FFFF9000C4EEF0DE
:100AAC00EFA3F09000C4E0C0E0A3E0C0E09000032E
:100ABC00122EA1AE82AF83158115819000A7EEF0A6
:100ACC00EFA3F09000A974FFC39EF0E49FA3F090F5
:100ADC0000ABE4F0A3F09000C7E0FEA3E09000A709
:100AEC00E0FDA3E09000A9E0FCA3E09000ABE0FBEC
:100AFC00A3E09000C0EDF09000C1ECF09000C2EBD0
:100B0C00F08E821209859000C6E060030209D322A0
:100B1C00E5829000CBF09000CAE0FFBF0137900057
:100B2C00CBE0FE75F002A424ADFC740035F0FD9012
:100B3C0000C9E0FB7A008C828D83EBF0EAA3F07D98
:100B4C00009000C4EBF0EAA3F09000C604F08E8293
:100B5C008D830209E8EF70209000CBE0FF75F00266
:100B6C00A424ADF582740035F0F583E4F0A3F07E97
:100B7C00008F828E8302095E227582001228C8E5DE
:100B8C00829001B4F07582011228C8E5829001DED2
:100B9C00F07E007F00C3EE9405EF64809480505D7E
:100BAC00EE2494FCEF3400FD8E0374022BF582C00E
:100BBC0007C006C005C004C0031228C8AA82D0030F
:100BCC00D004D005D006D0078C828D83EAF0EE24B9
:100BDC0099FCEF3400FD74092BF582C007C006C0E8
:100BEC0005C0041228C8AB82D004D005D006D007AB
:100BFC008C828D83EBF00EBE009B0F8098229001AF
:100C0C00B4E090015FF07582001228929001DEE052
:100C1C0090015FF07582011228927E007F00C3EE76
:100C2C009405EF64809480504D8E0574022DFCEE7B
:100C3C002494F582EF3400F583E090015FF08C8210
:100C4C00C007C006C005122892D005D006D0077484
:100C5C00092DFDEE2499F582EF3400F583E0900127
:100C6C005FF08D82C007C006122892D006D0070E06
:070C7C00BE00AB0F80A822AF
:100C8400AF83E5829000CCF0EFA3F09000CCE0FEBF
:100C9400A3E0FFEE4F6032E5A104F5A1E5A104F560
:100CA400A1E5A104F5A1E5A104F5A1E5A104F5A13F
:100CB400E5A104F5A1E5A104F5A11EBEFF011F9065
:100CC40000CCEEF0EFA3F080CA9000CCEEF0EFA3DE
:100CD400F022AF83E5829000CEF0EFA3F09000CE37
:100CE400E0FEA3E0FFEE4F601D9003E8C007C006DE
:100CF400120C84D006D0071EBEFF011F9000CEEE5A
:0F0D0400F0EFA3F080DF9000CEEEF0EFA3F0222F
:090D1400C007AF82DFFED0072208
:100D1E007F08C58233D20092000000000000000060
:100D2E0000000000C200000000000000DFE622907C
:100D3E0000D974D0F07400A3F0C2AF7F099000D92F
:100D4E00E0FDA3E0FE8D828E83E0FC9000D974015D
:100D5E002DF0E43EA3F08C82C007120D1ED007DFEB
:100D6E00DCD2AF900119020C849000D974D0F074CB
:100D7E0000A3F07F099000D9E0FDA3E0FE8D828EE6
:100D8E0083E4F09000D9E02401F0A3E03400F0DF1A
:100D9E00E4020D3DE5829000DEF0E0FF7E00C0072C
:100DAE00C006900003122EA1AE82AF83158115816D
:100DBE00EE24D0FEEF3400FF9000D9EEF0EFA3F05A
:100DCE009000DBE08E828F83F09000D9E02401F05A
:100DDE00A3E03400F09000D9E0FEA3E0FF9000DC29
:100DEE00E08E828F83F09000D9E02401F0A3E034EE
:100DFE0000F09000D9E0FEA3E0FF9000DDE08E82CF
:100E0E008F83F022E5829000E1F09000DFE0FF2377
:100E1E00235403FE53073F9000E0E0FD8DF005F0F4
:100E2E00EF800225E0D5F0FBFF8DF005F0743F80DA
:100E3E000225E0D5F0FB8F04C39CFDBE0002800AA4
:100E4E00BE0102801EBE024D80329000E1E0FE9097
:100E5E0000DBEDF09000DCEFF09000DDE4F08E8230
:100E6E00020DA29000E1E0FE9000DBE4F09000DCC9
:100E7E00EDF09000DDEFF08E82020DA29000E1E029
:100E8E00FE9000DBEFF09000DCE4F09000DDEDF082
:100E9E008E82020DA222E5829000E2F0E0FF900029
:100EAE00DBE4F09000DCF09000DDF08F82020DA20A
:100EBE00E5829000E3F0E0FFBF8800400B8F06EE66
:100ECE0024789000E3F0804CBF800040269002040E
:100EDE00E0FE8F05ED2480F5F005F074018002250B
:100EEE00E0D5F0FBFD4206900204EEF09000E3E444
:100EFE00F08021EF9033C5939000E3F0E0FF700196
:100F0E0022EF30E70F900204E04402FEF09000E37F
:100F1E00747F5FF09000E3E0FF7E03EE2403F58222
:100F2E00E43402F583E0FDB50701220EBE08004051
:100F3E00EA7F03EF2403FDE43402FE8D828E83E00C
:100F4E0070159000E3E08D828E83F09000FB7408A4
:100F5E00F090020302169B0FBF080040D622E582D6
:100F6E009000E4F0E0FFBF8800400B8F06EE24787F
:100F7E009000E4F0804DBF80004027900204E0FE18
:100F8E008F05ED2480F5F005F07401800225E0D583
:100F9E00F0FBF4FD5206900204EEF09000E4E4F053
:100FAE008021EF9033C5939000E4F0E0FF700122B2
:100FBE00EF30E70F900204E054FDFEF09000E47471
:100FCE007F5FF09000E4E0FF7E03EE2403FCE43448
:100FDE0002FD8C828D83E0B507068C828D83E4F052
:100FEE000EBE080040E49000FB7408F0900203026D
:100FFE00169BE5829000E5F0E0FFF582C007120E29
:10100E00BED0078F82020F6C7F07EF2403F582E4B8
:10101E003402F583E4F0DFF29000FB7408F09002E6
:10102E000302169BAFF0AE83E5829000E6F0EEA3CE
:10103E00F0EFA3F09000E6E0FDA3E0FEA3E0FF8D4D
:10104E00828E838FF0122FDFFC60230DBD00010E08
:10105E009000E6EDF0EEA3F0EFA3F08C82C007C097
:10106E0006C005121000D005D006D00780D1900022
:10107E00E6EDF0EEA3F0EFA3F022E5829000E9F0AA
:10108E00E090020CF09000FB7403F090020B02163D
:10109E009B90020CE4F09000FB7403F090020B02A4
:1010AE00169BE5829000EAF0E0F58212108802109D
:1010BE009FE5829000EBF090020FE0FF9000EBE0D6
:1010CE00420790020FEFF09000FB7405F090020EB5
:1010DE0002169BE5829000ECF090020FE0FF90006C
:1010EE00ECE0F4520790020FEFF09000FB7405F065
:1010FE0090020E02169BE5829000EEF0E090021038
:10110E00F09000EDE0900211F09000FB7405F0906D
:10111E00020E12169B900210E4F0900211F022E5DE
:10112E00829000EFF0E0900212F09000FB7405F058
:10113E0090020E12169B900212E4F022E5829000AD
:10114E00F0F0900214E0FF9000F0E04207900214DD
:10115E00EFF09000FB7404F090021302169BE582F0
:10116E009000F1F0900214E0FF9000F1E0F45207CD
:10117E00900214EFF09000FB7404F090021302162C
:10118E009BE5829000F3F0E0900215F09000F2E003
:10119E00900216F09000FB7404F090021302169B5E
:1011AE00C007AF8205A290000015A285F88285F9CE
:1011BE0083E493A3A5DFFAD007229000FAE5DBF0D3
:1011CE00E0FFBF08028003021545900007E0FE7F96
:1011DE0000900006E07C004207EC42069000F4EF1F
:1011EE00F0EEA3F09000FAE4F0900001E0FD900024
:1011FE00F6F0900000E0FC546060099000FA74FF75
:10120E00F002154BEDFC24F4500302153DEC240ABC
:10121E0083F582EC241083F583E47310DA3D5B3D95
:10122E009A413DA9CE4B4B151315141513121513D8
:10123E00131515900003E0FDBD01028013BD0202DF
:10124E008021BD0302802FBD22030212F802131B60
:10125E009000F87445F07434A3F09000FA7412F014
:10126E000213219000F87457F07434A3F09000FA32
:10127E007429F0021321900002E0FD24FB404CED96
:10128E002D9012937380088012801C8026803090DF
:10129E0000F87440F07435A3F0803A9000F874446E
:1012AE00F07435A3F0802E9000F8745CF07435A3C2
:1012BE00F080229000F8746EF07435A3F0801690D2
:1012CE0000F87482F07435A3F0800A9000F8746E02
:1012DE00F07435A3F09000F8E0FCA3E0FD8C828D55
:1012EE0083E493FC9000FAF08029900002E07015E0
:1012FE009000F87480F07434A3F090353FE493902E
:10130E0000FAF0800E9000FA74FFF080069000FA5A
:10131E0074FFF09000FAE0FDBDFF0302154B8D0443
:10132E007D00C3EC9FED9E50089000F4ECF0EDA311
:10133E00F09000F4E0FEA3E0FF8E048F05C3EC9462
:10134E0008ED9400920140067C087D0080048E0416
:10135E008F059000FAECF08C821211AE8C067F0095
:10136E009000F4E0FBA3E0FDEBC39EFBED9FFD9030
:10137E0000F4EBF0EDA3F09000F8E0FEA3E0FF9098
:10138E0000F8EC2EF0E43FA3F002154B900002E0C3
:10139E00FF9000F4F0E4A3F002154B9000F7E090FC
:1013AE000000F09000F4E0FEA3E0FFC3EE9401EF26
:1013BE009400500302154B9000FA7401F002154B85
:1013CE00900002E0FF9000F7F002154B900000E055
:1013DE00541F7037900003E0FE7F00900002E0FD86
:1013EE007C004207EC4206BF0118BE001590345E29
:1013FE00E493FF30E50302154B9000FA74FFF00200
:10140E00154B9000FA74FFF002154B900000E0FFB0
:10141E0053071F7E00BF022CBE0029900004E0FF80
:10142E00BF02028005BF8113800653D47302154B91
:10143E0074BC55D24402F5D202154B9000FA74FFDB
:10144E00F002154B9000FA74FFF002154B9000005D
:10145E00E0541F7037900003E0FE7F00900002E022
:10146E00FD7C004207EC4206BF0118BE0015903409
:10147E005EE493FF30E50302154B9000FA74FFF023
:10148E0002154B9000FA74FFF002154B900000E02D
:10149E00FF53071F7E00BF0261BE005E900003E097
:1014AE00FE7F00900002E0FD7C004207EC4206EF5A
:1014BE004E703F900005E0FE7F00900004E0FD7C42
:1014CE00004207EC4206BF0205BE00028008BF8143
:1014DE0019BE0016800A747F55D4440CF5D4805D75
:1014EE0074BF55D24403F5D280539000FA74FFF0C6
:1014FE00804B9000FA74FFF080439000FA74FFF076
:10150E00803B900000E4F0900001F09000F4E0FECB
:10151E00A3E0FF8E048F05C3EC9402ED9400400807
:10152E009000FA7402F080159000FAEEF0800E90A2
:10153E0000FA74FFF080069000FA74FFF09000FA43
:10154E00E0FFBFFF0A9000F674FFF075DCCF22EFCC
:10155E0024F740068FDD75DCC02275DD0075DCC01A
:10156E00229000F6E0FFBF0502805CBF066D900082
:10157E00F4E0FEA3E0FF8E048F05C3EC9408ED9417
:10158E0000920240067C087D0080048E048F058C3C
:10159E00821211AE8C067F009000F4E0FBA3E0FDFA
:1015AE00EBC39EFBED9FFD9000F4EBF0EDA3F090EE
:1015BE0000F8E0FEA3E0FF9000F8EC2EF0E43FA36D
:1015CE00F08CDD63DC4022E5E35480FF9000F4E014
:1015DE00FDA3E0ED4FF5E375DC022275DD0075DC51
:1015EE00022275DD0043DC022230D95CE5D9540FAE
:1015FE00FFADD95305307E00BD0005BE0002801838
:10160E00BD1005BE0002803EBD2005BE0002801C3E
:10161E00BD3033BE00308028BF00028005BF0226D9
:10162E0080051215F0801F12170F801ABF0002805E
:10163E0005BF0112800512156F800B12170180066F
:10164E00BF00031211C8C2D930D80F75DC021216B2
:10165E00F875E300C2DAC2D9C2D810DA0122E5DA8F
:10166E0020E20375D8FF2275E22975D181E4F5ECED
:10167E00F5ED75DC021216DF43E10743D81FD2EAFF
:06168E00D2AF75DD002261
:1016940012167575D30022AF83E5829000FCF0EF3B
:1016A400A3F02003FD9000FCE0FEA3E0FF9000FB0C
:1016B400E0FD7C00C3EC9D501AEC240AFAE43400EB
:1016C400FBEC2EF582E43FF583E0F98A828B83F00C
:1016D4000C80E18DD3D20353D2FC2275EE0A75EF50
:1016E4000075E41475E50075D21275D41075EA40DE
:1016F40075EB082275D21275D410C2032275D3007B
:1017040074FC55D24402F5D2C2032222AFF0AE8358
:10171400E582900108F0EEA3F0EFA3F0900107E05A
:10172400FF7E00740F5FFCC0047410C0E0E4C0E0EE
:101734008F828E83123204AE8215811581D004907B
:101744000108E0FBA3E0FDA3E0FFEC90359C938B44
:10175400828D838FF0122E8674012BF9E43DFA8F6B
:101764000489828A838CF0E4122E8674022BF9E4B5
:101774003DFA8F04EE90359C9389828A838CF01213
:101784002E8674032BFBE43DFD8B828D838FF0E466
:10179400022E86903FFAE493FF903FFCE493FE9080
:1017A4003FFDE493FD903FFEE493FC903FFFE49300
:1017B400FB900107EEF090022975F000C007C00508
:1017C400C004C003121710D003D004D00590010741
:1017D400EDF090022575F000C004C003121710D07C
:1017E40003D004900107ECF090022175F000C003CF
:1017F400121710D003900107EBF090021D75F00052
:10180400121710D007900107EFF090021975F0003D
:1018140002171090010BE5DBF0E0FFBF0802800324
:10182400021D2E900007E0FE7F00900006E07C0081
:101834004207EC4206900101EFF0EEA3F090010B99
:10184400E4F0900001E0FD900103F0900000E0540A
:10185400606058900000E0FC5304607B00BC2005ED
:10186400BB0002800FBC403ABB003790010B74FFF1
:10187400F0021D34BD2003021D34BD21028005BDCC
:101884002217800F122058AB82AC8390010BEBF02F
:10189400021D34122083021D3490010B74FFF002E8
:1018A4001D3490010B74FFF0021D34EDFC24F45040
:1018B40003021D26EC240A83F582EC241083F583AD
:1018C400E473F9E026B426A0DE26AFD434341C1A1F
:1018D4001D1B1D1A181D1A1A1D1D90022DE4F090CF
:1018E4000003E0FDBD0102800DBD02028024BD03A2
:1018F40002803B0219BB90010574CAF07432A3F054
:101904009032DCE493FC740193FD90010BECF00243
:1019140019C190010574DEF07432A3F0903381E4B0
:1019240093FC740193FD90010BECF00219C190003B
:1019340002E0701B9001057483F07433A3F09033BC
:1019440087E493FC740193FD90010BECF0806E909E
:101954000002E0FDBD011B90010574A5F07433A3E2
:10196400F09033C3E493FC740193FD90010BECF00D
:10197400804B900002E0FDBD021B9001057489F0CC
:101984007433A3F09033A3E493FC740193FD9001AA
:101994000BECF08028900002E0FDBD03209000FED7
:1019A4007417F07402A3F0E4A3F090022D04F090F5
:1019B400010B7416F0800690010B74FFF090010B7C
:1019C400E0FDBDFF03021D348D047D00C3EC9FEDDB
:1019D4009E5008900101ECF0EDA3F0900101E0FEAF
:1019E400A3E0FF8E048F05C3EC9408ED94009204E9
:1019F40040067C087D0080048E048F0590010BEC6A
:101A0400F090022DE0FFBF013C9001607417F07468
:101A140002A3F0E4A3F0900163ECF0E4A3F09000DF
:101A24000075F000C004122AB8D0049000FEE0FD56
:101A3400A3E0FEA3E0FF9000FEEC2DF0E43EA3F053
:101A4400EFA3F0803B900105E0FEA3E0FF9001606E
:101A5400EEF0EFA3F07480A3F0900163ECF0E4A344
:101A6400F090000075F000C004122AB8D004900170
:101A740005E0FEA3E0FF900105EC2EF0E43FA3F0A7
:101A84007F00900101E0FDA3E0FEEDC39CFDEE9F0D
:101A9400FE900101EDF0EEA3F0021D34900002E08F
:101AA400FF900101F0E4A3F0021D34900104E090E2
:101AB4000000F0900101E0FEA3E0FFC3EE9401EF0B
:101AC40094005003021D3490010B7401F0021D3484
:101AD400900002E0FF900104F0021D34900000E049
:101AE400541F7037900003E0FE7F00900002E0FD79
:101AF4007C004207EC4206BF0118BE00159032E597
:101B0400E493FF30E503021D3490010B74FFF002EF
:101B14001D3490010B74FFF0021D34900000E0FFAF
:101B240053071F7E00BF0205BE000280028078902A
:101B34000004E0FFBF0102805FBF02028049BF03CF
:101B4400028033BF0402801DBF81028040BF820235
:101B5400802ABF83028014BF844474BC55DE4402CF
:101B6400F5DE021D3453DE73021D3474BC55D644B5
:101B740002F5D6021D3453D673021D3474BC55D4F9
:101B84004402F5D4021D3453D473021D3474BC557D
:101B9400D24402F5D2021D3453D273021D34900193
:101BA4000B74FFF0021D3490010B74FFF0021D341E
:101BB400900000E0541F7051900003E0FE7F0090FD
:101BC4000002E0FD7C004207EC4206BF0132BE0089
:101BD4002F9032E5E493FF30E51DE5A220E7FB7585
:101BE400A15575A1AA75A9C143870275A15575A10F
:101BF400AA75A900021D3490010B74FFF0021D3474
:101C040090010B74FFF0021D34900000E0FF5307B5
:101C14001F7E00BF0205BE00028003021CF190007B
:101C240003E0FE7F00900002E0FD7C004207EC42EE
:101C340006EF4E6003021CE9900005E0FE7F009071
:101C44000004E0FD7C004207EC4206BF0106BE0032
:101C540003021CD7BF0205BE00028063BF0305BE9A
:101C640000028047BF0405BE00028029BF8105BE73
:101C740000028055BF8205BE00028039BF8305BEC5
:101C84000002801CBF8456BE005374BF55DE44035B
:101C9400F5DE021D34747F55DE440CF5DE021D347E
:101CA40074BF55D64403F5D6021D34747F55D6440B
:101CB4000CF5D6807B74BF55D44403F5D48071747D
:101CC4007F55D4440CF5D4806774BF55D24403F5D2
:101CD400D2805D747F55D2440CF5D2805390010BB1
:101CE40074FFF0804B90010B74FFF0804390010B64
:101CF40074FFF0803B900000E4F0900001F090014C
:101D040001E0FEA3E0FF8E048F05C3EC9402ED9482
:101D140000400890010B7402F0801590010BEEF066
:101D2400800E90010B74FFF0800690010B74FFF09D
:101D340090010BE0FFBFFF0A90010374FFF075DC14
:101D4400CF22EF24F740068FDD75DCC02275DD005D
:101D540075DCC022900103E0FFBF0503021E35BFFE
:101D640006028003021E49900101E0FEA3E0FF8EFB
:101D7400048F05C3EC9408ED9400920540067C089A
:101D84007D0080048E048F0590022DE0FFBF014585
:101D94009000FEE0FDA3E0FEA3E0FF900160EDF003
:101DA400EEA3F0EFA3F0900163ECF0E4A3F0900055
:101DB4000075F000C004122AB8D0049000FEE0FDC3
:101DC400A3E0FEA3E0FF9000FEEC2DF0E43EA3F0C0
:101DD400EFA3F0803B900105E0FEA3E0FF900160DB
:101DE400EEF0EFA3F07480A3F0900163ECF0E4A3B1
:101DF400F090000075F000C004122AB8D0049001DD
:101E040005E0FEA3E0FF900105EC2EF0E43FA3F013
:101E14008C067F00900101E0FBA3E0FDEBC39EFB79
:101E2400ED9FFD900101EBF0EDA3F08CDD63DC4050
:101E340022E5E35480FF900101E0FDA3E0ED4FF5BE
:101E4400E375DC022275DD0075DC022275D30074B3
:101E5400FC55D24402F5D222900103E0FFBF200DCD
:101E640030DE1012201875DD0085DCDC2275DD0003
:101E740043DC022220D903021F3AE5D9540FFFADF7
:101E8400D95305307E00BD0005BE0002801CBD1084
:101E940005BE00028045BD2005BE00028053BD3052
:101EA40006BE0003021F1F021F38EFFE24FB50036F
:101EB400021F38EE2E2E901EBE73021ECD021F3856
:101EC400021ED3021ED9021F38121E5C021F3812D2
:101ED40022A4021F3812287A021F38EFFE24FB4086
:101EE40053EE2E901EEB73804B80498047804580D3
:101EF40043EFFE24FB403DEE2E901F0173800880CB
:101F04000B800E8011802D121D588028121E5080C7
:101F140023122293801E1228698019EFFE24FB40AD
:101F240013EE2E901F2B7380088009800780058094
:101F340003121817C2D930D82075DC0275D2127575
:101F4400D41275D61275E300C2DAC2D9C2D8900190
:101F540004E4F012232A12200E10DA028020E5DABB
:101F640030E21EE5A220E7FB75A15575A1AA75A96B
:101F7400C143870275A15575A1AA75A9002275D818
:101F8400FF2275E20053E27F43E22975E30053E246
:101F9400BF53D1FB75D18043D1012243E10443E116
:101FA4000243E10143D81FD2EAD2AF227E087F0068
:101FB4008EEE8FEF7E107F008EE48FE57E307F0003
:101FC4008EE68FE775EBCC75D21275D41275D612E6
:0F1FD4007E007F008EEC8FED75EA4075DC0222F7
:101FE400900130E4F0900131F0121797121F86121D
:101FF4001FB0121F9F75DD0075D30075D50075D70E
:10200400009005DCE4F5F0022D65900236E4F090D2
:102014000238F0227F00C3E5DB9407920640067D78
:10202400077E008004ADDB7E008F037C00C3EB9D44
:10203400EC64808EF063F08095F05017EF242FFD50
:10204400E43402FE8F82758300E0FC8D828E83F07F
:102054000F80C3227F008F057E00C3ED9407EE94AA
:102064000050188F057E00EF242FF582E43402F52A
:1020740083E0FC8D828E83F00F80DB90000722903A
:102084000002E0FF900239F0E020E05090022FE0DF
:10209400FCA3E0FDA3E0FEA3E0FFBCB03FBD043C15
:1020A400BE0039BF003675E200C2AF7589009001E9
:1020B40035E4F07438A3F090C350122E1690C35038
:1020C400122E16900135E0FEA3E0FFC007C0068E75
:1020D400828F83120069D006D00780FE22900137D8
:1020E400E4F0900239E060069001377401F0900149
:1020F40037E0F58222900238E0701890023AE0FF4F
:10210400E060108FD553D4FC9002387401F0900233
:102114003AE4F022AF82900239E060617D007E00F3
:10212400900238E060240DBD00010E900005C00748
:10213400C006C005122E16D005D006D007C3ED94F4
:1021440050EE94C340DA7582002290023AE0FEBE5B
:10215400200050207D0074402EFEE43DFDEE24104E
:10216400F582ED3400F583EFF090023AE02401F0BB
:1021740075820122C0071220F9D007809F75820062
:1021840022AFF0AE83E58290013AF0EEA3F0EFA324
:10219400F0900239E0700302225B900138E0FEA364
:1021A400E0FFC3E49E74808FF063F08095F04003F9
:1021B40002225B7E007F00900238E060200EBE00A9
:1021C400010F900005C007C006122E16D006D007D6
:1021D400C3EE9450EF94C340DE7582002290013A1E
:1021E400E0FDA3E0FEA3E0FF900138E0FBA3E0FCE8
:1021F400C3E49B74808CF063F08095F0509C900253
:102204003AE0FABA200050498A017A00744029F968
:10221400E43AFAE92410F9EA3400FA8D828E838FC5
:10222400F0122FDFF8A3AD82AE8390013AEDF0EE09
:10223400A3F0EFA3F089828A83E8F090023AE024C5
:1022440001F01BBBFF011C900138EBF0ECA3F08004
:102254009F1220F902219E75820022900236E0F539
:102264008222900236E07003F58222900237E02445
:1022740010F582E43400F583E0FF900237E004F0C7
:10228400900236E014F0E0700353D4F38F82227589
:10229400D50074FC55D44402F5D4900238E4F022FD
:1022A40030DE19900236E5DBF0900237E4F090025C
:1022B40036E0600874F355D44408F5D422AF83E5BE
:1022C4008290013DF0EFA3F090013DE0FEA3E0FF1A
:1022D400900240EEF0EFA3F022AF83E58290013F3D
:1022E400F0EFA3F090013FE0FEA3E0FF90023EEE8A
:1022F400F0EFA3F022AF83E582900141F0EFA3F069
:10230400900141E0FEA3E0FF900242EEF0EFA3F063
:1023140022900132E0F58222900133E0F58222908E
:102324000134E0F5822290023BE4F090023DF0900B
:102334000130F0900131F022900143E4F090010467
:10234400E0600890023BE0900143F0900143E0F527
:102354008222AFF0AE83E582900144F0EEA3F0EF69
:10236400A3F0900144E0FDA3E0FEA3E0FF74012D7F
:10237400FAE43EFB8F048A828B838CF0122FDFFAFF
:102384005302F07C00BA9019BC001674032DFDE4CE
:102394003EFE8D828E838FF0122FDF6004758202E1
:1023A40022900144E0FDA3E0FEA3E0FF74012DFAB6
:1023B400E43EFB8F048A828B838CF0122FDFFA5366
:1023C40002F07C00BA9019BC001674032DFDE43EA3
:1023D400FE8D828E838FF0122FDF700475820122AE
:1023E400900144E0FDA3E0FEA3E0FF0DBD00010E5B
:1023F4008D828E838FF0122FDFFD74F05DFC7E00E2
:10240400BC8007BE0004758201225305F07F00BD25
:10241400B007BF0004758203227582002212233C98
:10242400E58270012290023BE0FF7E00900160741F
:1024340030F07400A3F0E4A3F0900163EFF0EEA396
:10244400F090011075F000122AB8900130E4F09079
:10245400023BE0900131F053D6F390023BE4F0905C
:102464000147F0900147E0FF900131E0FEC3EF9E89
:10247400400122EF2410FFE43401FE8F057F008D1C
:10248400828E838FF0C007C006C005122356AC822B
:10249400D005D006D007BC0154900240E0F5F0A36B
:1024A400E045F0700302265674022DF9E43EFA8FDB
:1024B4000389828A838BF0122FDFF953017F740121
:1024C4002DF8E43EFA8F0388828A838BF0122FDF83
:1024D400F853000FC0011224DF800D900240E0C0C9
:1024E400E0A3E0C0E08882221581022656BC0202E5
:1024F40080030225AA90023EE0F5F0A3E045F070C7
:102504000302265674012DF516E43EF5178F18853F
:1025140016828517838518F0122FDFF89001327424
:102524000F58F074022DF519E43EF51A8F1B851926
:1025340082851A83851BF0122FDFF9900133747F93
:1025440059F074032DF9E43EFA8F0389828A838B50
:10255400F0122FDFF8900134747F58F089828A8357
:102564008BF0122FDFF953017F851982851A838539
:102574001BF0122FDFFB53037F851682851783859B
:1025840018F0122FDFFA53020FC001C00312259670
:10259400800D90023EE0C0E0A3E0C0E08A822215F4
:1025A400811581022656BC0302800302265690023E
:1025B40042E0F5F0A3E045F0700302265674012DC5
:1025C400F519E43EF51A8F1B851982851A83851B3C
:1025D400F0122FDFF9900132740F59F074022DF8C4
:1025E400E43EF98F04888289838CF0122FDFFB90FC
:1025F4000133747F5BF074032DFDE43EFE8D828E07
:10260400838FF0122FDFFB900134747F5BF08D8297
:102614008E838FF0122FDFFD53057F888289838C90
:10262400F0122FDFF853007F851982851A83851BEA
:10263400F0122FDFFF53070FC005C000122645809C
:102644000D900242E0C0E0A3E0C0E08F8222158139
:102654001581900147E0FF2404F0022467AFF0AE37
:1026640083E582900149F0EEA3F0EFA3F07E007FB2
:102674000090023DE060240EBE00010F90000AC0ED
:1026840007C006122E16D006D0078E048F05C3ECA1
:102694009410ED942740DA75820022900148E0FFFF
:1026A400BF043A900149E0FCA3E0FDA3E0FE9001E1
:1026B40060ECF0EDA3F0EEA3F0900163EFF0E4A37F
:1026C400F090007075F000C007122AB8D0078FD7B9
:1026D40053D6FC90023D7401F0758201227582008C
:1026E40022E58290014EF090010C7409F090014EA5
:1026F400E0449090010DF090014CE0547F90010E65
:10270400F090014DE0547F90010FF0900148740463
:10271400F090010C75F000022661E582900150F002
:1027240090010C7408F0900150E0448090010DF089
:1027340090014FE0547F90010EF090010FE4F0906F
:1027440001487404F090010C75F000022661E582E2
:10275400900153F090010C740BF0900153E044B0DD
:1027640090010DF0900151E0547F90010EF0900122
:1027740052E0547F90010FF09001487404F09001EE
:102784000C75F000022661E582900158F090015426
:10279400E0FEA3E08E04A2E7CC33CC33CC54015347
:1027A400047F53067F900158E0FF9001517462F05A
:1027B400900152EEF08F82C007C004122752D00459
:1027C400D0079001517463F0900152ECF08F82C0F5
:1027D40007122752D007900156E0FDA3E08D03A213
:1027E400E7CB33CB33CB540153037F53057F9001A5
:1027F400517406F0900152EBF08F82C007C00512AD
:102804002752D005D0079001517426F0900152ED63
:10281400F08F82022752E58290015AF0900159E02C
:10282400FF7E0074C02FFF741F3EFE8F0553057F8B
:10283400EEA2E7CF33CF33CF540153077F90015A31
:10284400E044E090015BF090015CEDF090015DEFFD
:10285400F090015EE4F09001487404F090015B751F
:10286400F00002266175D70074FC55D64402F5D6F3
:1028740090023DE4F02230DE1390023BE5DBF09061
:0D288400023CE4F074F355D64408F5D6226A
:10289200AF82BF800040012275A15575A1AA43B144
:1028A2000475A1007585C0EF2FF58490015FE0F5F6
:1028B2008EE58630E60375869A75A15575A1AA53F1
:1028C200B1FB75A10022AF827585C0EF2FF584752B
:0628D200868E858E822235
:1028D800C022C0E0C0F0C082C083C007C006C005E7
:1028E800C004C003C002C001C000C0D075D000122F
:1028F8001E78D0D0D000D001D002D003D004D005AB
:10290800D006D007D083D082D0F0D0E0D02232C019
:1029180022C0E0C0F0C082C083C007C006C005C0A6
:1029280004C003C002C001C000C0D075D0003098F8
:10293800051230E8C298309905123128C299D0D0D2
:10294800D000D001D002D003D004D005D006D007E3
:10295800D083D082D0F0D0E0D02232C022C0E0C0F4
:10296800F0C082C083C007C006C005C004C003C051
:1029780002C001C000C0D075D00030C00512317649
:10298800C2C030C1051231B6C2C1D0D0D000D0010A
:10299800D002D003D004D005D006D007D083D0828F
:1029A800D0F0D0E0D02232C022C0E0C0F0C082C057
:1029B80083C007C006C005C004C003C002C001C070
:1029C80000C0D075D000900246E0FEA3E0FFC0072B
:1029D800C0068E828F83120069D006D007D0D0D06F
:1029E80000D001D002D003D004D005D006D007D043
:1029F80083D082D0F0D0E0D02232C022C0E0C0F034
:102A0800C082C083C007C006C005C004C003C0029E
:102A1800C001C000C0D075D000900248E0FEA3E01D
:102A2800FFC007C0068E828F83120069D006D007C8
:102A3800D0D0D000D001D002D003D004D005D00629
:102A4800D007D083D082D0F0D0E0D02232C022C0CC
:102A5800E0C0F0C082C083C007C006C005C004C083
:102A680003C002C001C000C0D075D000900244E08D
:102A7800FEA3E04E600E900244E0F8A3E0F58388E0
:102A880082120069D0D0D000D001D002D003D00487
:102A9800D005D006D007D083D082D0F0D0E0D022A5
:102AA80032122E511200DC1200F480FB75820022D3
:102AB800AFF0AE83E582900165F0EEA3F0EFA3F0EE
:102AC800900165E0F52FA3E0F530A3E0F531AA2FDA
:102AD800AB30AC31900160E0F8A3E0F9A3E0FF90DF
:102AE8000163E0F532A3E0F533AD32AE331532744D
:102AF800FFB532021533ED4E6020888289838FF04E
:102B0800122FDFFEA3A882A9838A828B838CF0EE22
:102B1800122E86A3AA82AB8380CF852F828530832D
:102B28008531F022E582FF9035FC93FEEF9035D495
:102B380093FF700122900168E0FD701BBF0209EE4F
:102B4800F4FC5292EC529322BF0402800122EEF46C
:102B5800FC5296EC529722BD0214BF0207EE429235
:102B6800EE429322BF0439EE4296EE429722BD010F
:102B780016BF0208EEF45292EE429322BF0421EEF1
:102B8800F45296EE429722BD0316BF0208EE429217
:102B9800EEF4529322BF0408EE4296EEF4FE5297EA
:102BA80022AF82BF0102800FBF02028013BF03025F
:102BB8008017BF0425801BE5C620E21E539DFB221B
:102BC800E5C620E315539DF722E5C630E20C539D78
:102BD800FB22E5C630E303539DF722E582FF9035DB
:102BE800AC93FEEF9035FC93FDEF9035D493FF70D6
:102BF80003F58222EE600D8E82C007C005122BA954
:102C0800D005D0077E00BF0202800ABF03028009F8
:102C1800BF040C8008AE908006AEA08002AEB0ED76
:102C28005E60047582012275820022E582FF90357C
:102C3800AC93FEEF9035FC93FDEF9035D493FFEE07
:102C4800600D8E82C007C005122BA9D005D007A23F
:102C5800AFE433FEC2AFBF0202800ABF030280178F
:102C6800BF04368024900169E07007EDF4FF5290AC
:102C78008027ED42908022900169E07007EDF4FF13
:102C880052A08015ED42A08010900169E07007ED18
:0F2C9800F4FF52B08003ED42B0EE6002D2AF22E3
:102CA800C0D075D00808B8000D09B900090ABA00E3
:102CB800050BBB00010CD0D032A2AFC2AFA808A947
:102CC80009AA0AAB0BAC8A8588F092AF30F512746A
:102CD800012C600D08B8000909B900050ABA0001FD
:102CE8000BC3EC9406FCECC313FC75F07DE8A4F868
:102CF800ADF075F07DE9A42DF9E435F0FD75F07DB2
:102D0800EAA42DFAE435F0FD75F07DEBA42DFB7DEA
:102D180000EC28F582E93DF583EA3DF5F0EB3D222C
:102D2800A2AFC2AFA808A909AA0AAB0BAC0C92AF14
:102D380075F020E8A4A8F075F020E9A428F582A889
:102D4800F075F020EAA428F583A8F075F020EBA42C
:102D580028F9A8F075F020ECA42889F022858223B0
:102D680085832485F025F526122CC1858227858345
:102D78002885F029F52AE5234524452545267001AF
:102D880022A823A924AA25AB2685272B85282C85AC
:102D9800292D852A2EE8494A4B60DBC003C002C0B2
:102DA80001C000122CC1AC82AD83AEF0FFD000D0C0
:102DB80001D002D003ECC3952BFCED952CFDEE95CC
:102DC8002DFEEF952EFFC3EC94E8ED9403EE9400EE
:102DD800EF940040A118B8FF0919B9FF051ABAFF06
:102DE800011B882389248A258B2674E8252BF52B3B
:102DF8007403352CF52CE4352DF52DE4352EF52E00
:102E0800852B27852C28852D29852E2A8087AE821B
:102E1800AF83C374019EE49F40022200C374029EE4
:102E2800FE74009FFF00BE0005BF000200220000E4
:102E38000000000000000000000000000000000E7C
:102E4800BE00EB0FBF00ED002275A15575A1AA7455
:102E5800F855B94406F5B975A100901388122E16D5
:102E6800759E5D759D0074F055894402F58953C9B6
:0D2E7800EF758C06C28DD2A9D28CD2AF228C
:102E860020F71130F6138883A88220F509F6A88367
:102E96007583002280FEF280F5F022C01C85811C1D
:102EA600C082C083E5812405F581AF1C0FE51C2493
:102EB60003F8A607087600087640E51C24FCFD7E8C
:102EC600007F40E51C2406F9A81C088604E51C249E
:102ED600FCF886038CF0EBA4F709A7F0E51C2406A2
:102EE60004F98704A81C08860374012DFAE43EFE43
:102EF6008A828E838FF0122FDF8BF0A4FBE51C24D1
:102F060003F8740126FDE40836FE0886078D828ED6
:102F1600838FF0122FDFFDE51C24FCF886078DF069
:102F2600EFA42B2CF7E51C2406F987060987078EE4
:0A2F3600828F83851C81D01C22329B
:012F4100325D
:102F4300ABF0A2AFE433FEC2AFE0A37A0833D2B44E
:102F53004002C2B47905D9FEC2B4DAF1DBEBEE600C
:042F630002D2AF22C5
:102F670022AF82BF0200503EEF75F002A42446FD57
:102F7700740235F0FE90016BE0FBA3E0FC8D828EBE
:102F870083EBF0ECA3F0BF00028005BF0118800BB4
:102F970090016DE024FF9288D2A82290016DE0FF96
:102FA70024FF928AD2AA22AF82BF02005028BF0014
:102FB700028005BF01088004C2A88002C2AAEF757B
:102FC700F002A42446FE740235F0FF8E828F8374CC
:072FD70067F0742FA3F02244
:102FDF0020F71430F6148883A88220F507E6A8831B
:102FEF0075830022E280F7E49322E022C01C8581E2
:102FFF001CAE82E583FF33E433FD6009C3E49EFB1F
:10300F00E49FFC80048E038F04E51C24FCF808E683
:10301F0030E70FE51C24FCF8C3E496FE08E496FFA6
:10302F00800AE51C24FCF88606088607C005C00642
:10303F00C0078B828C83123069AE82AF83158115E6
:10304F0081D005ED600DC3E49EFCE49FFD8C828D65
:10305F008380048E828F83D01C22C01C85811CAE7E
:10306F0082AF837D007C00E51C24FCF808E6235426
:10307F0001FB702FE51C24FCF8E626F608E633F674
:10308F00E51C24FCF8C3EE96EF08965011E51C24BE
:10309F00FCF808E618C313C613C608F680050C8C97
:1030AF000580C4E51C24FCF8C3EE96EF0896400D8E
:1030BF00E51C24FCF8EEC396FEEF0896FFE51C24F2
:1030CF00FCF808E618C313C613C608F68D041DECEA
:0930DF0070D18E828F83D01C2277
:1030E80090024AE0FF7E000FBF00010E7410C0E09E
:1030F800E4C0E08F828E83122FFBAE82158115818A
:1031080090024BE0FFEEB507012290024AE0246EE0
:10311800F582E43401F583E599F090024AEEF02255
:1031280030074A90024CE0FF90024DE0FEEFB506F2
:1031380005A207C2072290024DE0247EF582E434FE
:1031480001F583E0F59990024DE0FF7E000FBF0086
:10315800010E7410C0E0E4C0E08F828E83122FFB52
:0E316800AE82AF831581158190024DEEF022EC
:1031760090024EE0FF7E000FBF00010E7410C0E00B
:10318600E4C0E08F828E83122FFBAE8215811581FB
:1031960090024FE0FFEEB507012290024EE0248E2A
:1031A600F582E43401F583E5C1F090024EEEF0229B
:1031B60030084A900250E0FF900251E0FEEFB5065B
:1031C60005A208C20822900251E0249EF582E4344A
:1031D60001F583E0F5C1900251E0FF7E000FBF00CC
:1031E600010E7410C0E0E4C0E08F828E83122FFBC4
:0E31F600AE82AF8315811581900251EEF0225A
:10320400C01C85811CAE82E583FF33E433FD600975
:10321400C3E49EFBE49FFC80048E038F04E51C241E
:10322400FCF808E633E433FF600FE51C24FCF8C324
:10323400E496FA08E496FE800AE51C24FCF886026B
:10324400088606C007C005C002C0068B828C8312A4
:10325400327AAC82AE8315811581D005D007EF6D2B
:10326400600DC3E49CFDE49EFF8D828F8380048CFB
:10327400828E83D01C22C01C85811CAE82AF837CCD
:10328400007D007B10EF235401FAEE2EFEEF33FF96
:10329400EC2CFCED33FDEA6003430401E51C24FC43
:1032A400F8C3EC96ED08964010E51C24FCF8ECC33A
:1032B40096FCED0896FD430601DBCA8E828F83D00F
:0632C4001C2275820022AD
:1032CA0012011001EF0201080912C1CA120001021B
:1032DA00030112000902A3000401008032080B0056
:1032EA000202020100090400000102020100052491
:1032FA00001001052401000004240202052406002E
:10330A00010705810308004009040100020A0000C0
:10331A0000070502022000000705820220000009BA
:10332A000402000001010000092401000109000152
:10333A000309040300020103000007240100012518
:10334A0000062402010100062402020200092403E5
:10335A00010301020100092403020401010100071B
:10336A00050302200000052501010107058302204B
:10337A0000000525010103A3000403090404001A3F
:10338A00035000750073006800260054007500722F
:10339A00006E002D00330031001A001E0343006F37
:1033AA00006E006300650070007400200026002093
:0B33BA000043006F00640065001E006F
:1033C50000000000000000002A2B2800000000007B
:1033D50000000000000000000000000000000000E8
:1033E5002C9EB4A0A1A2A434A6A7A5AE362D37382D
:1033F500271E1F20212223242526B333B62EB7B836
:103405009F8485868788898A8B8C8D8E8F909192F3
:10341500939495969798999A9B9C9D2F3130A3AD3F
:10342500350405060708090A0B0C0D0E0F101112BD
:10343500131415161718191A1B1C1DAFB1B0B500BA
:103445001201100100000008891190880001010295
:10345500030109022900010100804B090400000253
:103465000301010409211001210122BF0007058183
:10347500030800010705020308000A05010906A162
:10348500018501050719E029E71500250175019555
:10349500088102750895018103190029E7150026A1
:1034A500FF00750895058100050819012905150016
:1034B5002501750195059102750395019103C005D7
:1034C5000C0901A101850219002A3C021500263CC0
:1034D50002751095018100C005010902A1010901CC
:1034E500A1008503050919012903150025017501A9
:1034F500950381027505950181030501093009319F
:1035050009381581257F750895038106C0C0050119
:103515000905A101A100850405091901290815005E
:1035250025017501950881020501093009311581CB
:10353500257F750895028102C0C0BF0403090418E0
:103545000377006100670069006D0069006E006126
:103555000074006F00720012034D00610063007279
:10356500006F0050006100640014034300480035FB
:10357500003500320078004800490044001A03482D
:1035850000490044002D004B006500790062006F82
:0735950000610072006400F8
:10359C00303132333435363738394142434445467D
:1035AC00000000000000000000000000000000010E
:1035BC0000000000000000000000000000000304F8
:1035CC0000000200000000000101010101010101E5
:1035DC0000000202020202020202000003030303C3
:1035EC0003030303000004040404040404040000A3
:1035FC000102040810204080000001020408102081
:10360C0040800000010204081020408000000102EC
:10361C000408102040800000FFFFFFFFFFFFFFFFAA
:10362C00FFFFFF00FFFF0102FFFFFFFFFFFFFFFF98
:10363C00FFFFFFFFFFFFFFFF03FFFFFFFFFFFFFF8A
:10364C00A92A0B1110210C7F0100010001000100BF
:10365C00010001000100010000000000000000005A
:10366C00000000000000000000000000000000004E
:10367C0001000000000000FFFF010002000100003B
:10368C00000200FFFFFFFF0200000001000200012A
:05369C0000FFFF00002B
:1036A1000100000000000000020000030000000013
:0436B1000400000011
:1036B500160363006800650065006E002D0032008A
:0836C500320032003200000067
:1036CD0000E1000000000800000000000000000004
:0536DD000000000000E8
:0236E2000000E6
:0436E400672F672FB6
:0436E80000000000DE
:0436EC0000000000DA
:00000001FF
